:020000040800F2
:1000000038070020E5010008292E0008AB2A000867
:10001000252E000883120008353800080000000073
:100020000000000000000000000000008D3100080A
:100030008712000800000000613100088F310008BD
:10004000FF010008FF010008FF010008FF01000890
:10005000FF010008FF010008FF010008FF01000880
:10006000FF010008FF010008FF010008FF01000870
:10007000FF010008FF010008FF010008FF01000860
:10008000FF010008FF010008FF010008FF01000850
:10009000FF010008FF010008FF010008FF01000840
:1000A000FF010008FF010008FF010008FF01000830
:1000B00001320008FF010008FF010008FF010008ED
:1000C000FF010008FF010008FF010008FF01000810
:1000D000FF01000825380008FF010008FF010008A3
:1000E000FF010008FF010008FF010008FF010008F0
:1000F000FF010008FF010008FF010008FF010008E0
:10010000FF010008FF010008FF010008FF010008CF
:10011000FF010008FF010008FF010008FF010008BF
:10012000FF010008FF010008FF010008FF010008AF
:1001300000F002F800F047F80AA090E8000C8244B2
:100140008344AAF10107DA4501D100F03CF8AFF28F
:10015000090EBAE80F0013F0010F18BFFB1A43F0A5
:1001600001031847284E0000484E0000103A24BFF3
:1001700078C878C1FAD8520724BF30C830C144BF0C
:1001800004680C607047000000230024002500264E
:10019000103A28BF78C1FBD8520728BF30C148BFEA
:1001A0000B607047662903F0C385002070471FB5B8
:1001B00000F02AFB04000020002103F0CBFBE060EC
:1001C0001FBD10B510BD00F01FFC1146FFF7EFFF7B
:1001D00003F06AFB00F03DFC03B4FFF7F2FF03BC41
:1001E00000F080FC0948804709480047FEE7FEE729
:1001F000FEE7FEE7FEE7FEE7FEE7FEE7FEE7FEE7D7
:1002000004480549054A064B70470000FD310008C7
:100210003101000838010020380700203803002091
:10022000380300200FB41CB5074B06AA7B4469466F
:100230000090059800F0CFFA0020694600F0DEFA41
:100240001CBC5DF814FB0000CD0500002DE9F04753
:100250004FF0000A89460446C0F820A02046E16815
:100260008847002876D0252806D0D4E90121904778
:10027000206A401C2062F1E7E1682046002588479B
:10028000C4F81CA006460027C4F818A02A2E09D0DE
:10029000304603F001FB38B304EB8708303EC8F862
:1002A000186019E059F8041B204604EB870291619D
:1002B000E1688847012F064618D1E069002820DA56
:1002C00025F020051DE0D8F8180000EB800006EBB3
:1002D00040003038C8F818002046E16888470646D4
:1002E00003F0DAFA0028EED1012F0AD02E2E08D121
:1002F0002046E16888477F1C0646022F45F020050E
:10030000C4DBA069002803DA404245F00105A06182
:10031000E80701D025F01005B6B1A6F14100192873
:1003200002D8203645F400654A463146204625600D
:100330004D46FFF737FF58B1012806D0ED1D25F0D7
:10034000070000F1080989E704E005F1040985E7E1
:1003500030468AE7206ABDE8F0874FF0000200B51A
:10036000134694469646203922BFA0E80C50A0E8D8
:100370000C50B1F12001BFF4F7AF090728BFA0E886
:100380000C5048BF0CC05DF804EB890028BF40F852
:10039000042B08BF704748BF20F8022B11F0804F94
:1003A00018BF00F8012B70477047704770477047BF
:1003B0002DE9FF4F0C461E464FF0FF378BB0D2E9B8
:1003C0000001DDF860800A908A46C1F30A5505B93C
:1003D0003D46002108464FF00000BAF1000F00F43E
:1003E000400005DA00EB80004FF4400101EA5000C4
:1003F0004FEA9059B9F1010F00DDB9460A9850EA69
:100400004A000ED044F61050A5F2FF3545432F1494
:10041000B8F1000F1ED07542291E1EDDC9F1000281
:100420001CE0B8F1010F4FF0000001D0302103E0D3
:10043000F24305E02154401CB042FBDB3046002271
:10044000002121540B99C1F80880C1E900200FB0A8
:10045000BDE8F08FBD1B6D1CDEE74A4600DA69423D
:1004600006A800F05BFA06AB93E8070003AB83E84D
:10047000070050460A9900F03CFB8DE80700A0F504
:1004800000501F3800900398002D0ADD42F21F0132
:100490004A460844002303A90390684600F0A5FDDE
:1004A00009E0A0F500504A461F38002303A9039035
:1004B000684600F0AFFD8DE807000004000C03D093
:1004C0004FF0FF30410800E01046B8F1000F03D0B4
:1004D0000022009215461EE0751E05D400F098F922
:1004E000303262556D1EF9D5B3460122084302D061
:1004F00000227F1C04E02078302801D100227F1EDA
:10050000002A099784D01DE0112D07DA00F080F948
:10051000303262556D1C50EA0102F5D1084302D019
:100520000098C8B10EE00021681E05E0235C625C03
:1005300063542254401E491C8142F7DBAB46A81B82
:10054000401E0990002004F80B000B98099AC0F88F
:100550000880C0E9002B7AE711264FF0000857E722
:100560002DE9F04F88460446D21D22F0070191B0D4
:10057000D1E90001CDE90A0103F05EF902460B98CA
:10058000C00F01D02D2007E02068810701D52B2066
:1005900002E0202101EAC000032A099001D0072AC5
:1005A00005DB03464146204600F078F90BE1207850
:1005B000800601D5E06900E00620B8F1650F8146AC
:1005C00006D0B8F1660F18D0B8F1670F70D131E0DE
:1005D0000020B9F1110F009001DB112301E009F1B6
:1005E00001030AAA01A90CA8FFF7E2FEDDE90C70DD
:1005F000002609F10105834647E001204B460090A3
:100600004FF000470AAA01A90CA8FFF7D1FEDDE9C7
:100610000DB00C995D46002610B909F101000D18C6
:10062000B9EB050003D4C0F1FF3609F10105A5EBD4
:1006300009002BE0B9F1010F01DA4FF001090020A8
:10064000B9F1110F0090484601DD112300E0034687
:100650000AAA01A90CA8FFF7ABFEDDE90C704D4614
:1006600000268346207800070AD4AB4500DA5D46B1
:1006700001A8012D04DD411911F8011C302907D012
:100680004F4502DA17F1040F04DA012082460FE029
:100690006D1EEEE7002F02DCED1B3E4403E0781CEC
:1006A000A84200DD7D1CB81B00F1010A4FF0004795
:1006B0002078000703D4AA4501DB4FF0FF3A002160
:1006C000B7F1004F0DF143088DF8431024D00220FC
:1006D0002B23002F01DA7F422D230A21021EA0F1D5
:1006E000010000DC5FB197FBF1FC97FBF1F201FB2D
:1006F0001C7C17460CF1300C08F801CDEEE7A8F190
:10070000010003702188090501D5452100E065211C
:10071000A0F1010800F8011C09980FA9A1EB080736
:10072000FF1D00B10120411901EBEA70A1693844B5
:10073000081A401EA0612078C00602D42046AFF3FC
:100740000080099828B1D4E901219047206A401C13
:1007500020622078C00622D52046AFF300801EE03C
:10076000002E04DBB34502DD01A8805D00E03020EF
:10077000D4E901219047206A401C2062761CAAF12E
:1007800001005FEA000A0AD100F03EF8C068016883
:10079000405CD4E901219047206A401C2062281E59
:1007A000A5F10105DCDC07E0D4E9012118F8010B13
:1007B0009047206A401C2062381EA7F10107F3DC35
:1007C0002046AFF30080032011B041E601694A1CC6
:1007D00002610878704700B58FB0CDE90131002182
:1007E000059105497944CDE9031011466846FFF7A4
:1007F0002DFD0FB000BD0000E5FFFFFF0A6802F805
:10080000010B0A607047000000487047F8000020A4
:1008100030B5B0F10A024FEA900E71F100034EEAD2
:10082000817EB0EB0E0061EB91014FEA101E4EEAA3
:10083000017E10EB0E0041EB11114FEA102E4EEA33
:10084000016E10EB0E0041EB11214FEA104E4EEA03
:10085000014E10EB0E0041EB1141401841F1000137
:100860004FEAD00040EA41704FEAD10110EB800519
:100870004FEA810444EA907444EB01046D1944EB9F
:100880000404521BA3414FF0000348BF0A3200D5B5
:1008900030BD401C41F1000130BD00002DE9F041A8
:1008A0001F46044603260168072A01F4006004DBA2
:1008B00008B116A505E016A503E008B115A500E0EE
:1008C00015A521F010002060A069C01EA0610FB125
:1008D000401EA0612046AFF300804FB1D4E9012152
:1008E00038469047206A401C2062C01C206206E007
:1008F000206AFAE7D4E9012115F8010B9047761E2A
:10090000F8D22046AFF30080BDE8F0814E414E00A2
:100910006E616E00494E4600696E66002DE9F04733
:10092000814616468AB0354878440DC88DE80D00DA
:1009300032487844801C03AC0DC884E80D0041F6B1
:100940009B300844372190FBF1F290FBF1F5A5F1C3
:10095000800501FB12041B3C02D56442012000E02B
:100960000020DFF898A080460027FA44AAF1BE0ACA
:100970000EE0E0070AD03246684607EB4701012344
:100980000AEB810100F046FB8DE8070064107F1C34
:10099000002CEED1194F7F44AE3F19E0E80715D087
:1009A00007EB04100DF1180A90E80E008AE80E001B
:1009B000C068F04201D1981908903246012306A977
:1009C00003A800F027FB03AB83E807006D10641C4D
:1009D000002DE3D14FF0010332466946B8F1000F14
:1009E00003A802D000F001FB01E000F013FBC9E90D
:1009F0000001C9F808200AB0BDE8F08748460000A9
:100A000000487047D80000207546FFF7F9FFAE4652
:100A100005006946534620F00700854618B020B50A
:100A2000FFF7EEFBBDE820404FF000064FF0000757
:100A30004FF000084FF0000B21F00701AC46ACE886
:100A4000C009ACE8C009ACE8C009ACE8C0098D46F3
:100A5000704710B50446AFF300802046BDE8104053
:100A6000FFF7BABB4FF0013C50F8042B51F8043BA0
:100A70009A4221D1A2EB0C03934313EACC1317D172
:100A800050F8042B51F8043B9A4215D1A2EB0C0309
:100A9000934313EACC130BD150F8042B51F8043BC9
:100AA0009A4209D1A2EB0C03934313EACC13DBD097
:100AB0004FF00000704700BFD01A01BAB1FA81F1BF
:100AC00001F0180122FA01F0CB40C1F12001DBB2A4
:100AD000C0B2C01A2CFA01F3D11A914311EAC31122
:100AE000E6D1704701491820ABBEFEE726000200A0
:100AF00070475FEA400C08BF91F0000F4FEA8C236B
:100B00004FEAC12243EA51514FEA1C5018BF00F589
:100B1000F0404FEA300018BF41F000415FEA6C5CE2
:100B200000F02980BCF1FF3F08BF40F080407047D3
:100B3000130C06BF12044FF0100C4FF0000C130EF4
:100B400004BF12020CF1080C130F04BF12010CF1C8
:100B5000040C930F04BF92000CF1020CD30F04BFDE
:100B600052000CF1010C11464FF00002A0F11F00E1
:100B7000A0EB0C00704711F0004F08BF704731F038
:100B800000413FF4D5AF0B0C06BF09044FF0100C29
:100B90004FF0000C0B0E04BF09020CF1080C0B0FF8
:100BA00004BF09010CF1040C8B0F04BF89000CF188
:100BB000020CCB0F04BF49000CF1010CCCF1200357
:100BC000A0EB0C0022FA03F302FA0CF241EA030153
:100BD00000F10100704720F07F4C80EA030023F011
:100BE0007F47ACEB070303F57C5300F0004003F1B3
:100BF000FF032DE980494FEA154B09B44FEA14432E
:100C000025EA0B4E24EA03480FF2042606EB1327CD
:100C100049083E785FEA320203FB0667C7F5000722
:100C200007FB06F64FEA54374FEAD64606F10206AE
:100C300007FB066CCCF1005C4FEA1C472CEA074C22
:100C400007FB06F40CFB06F504EB15464FEA961677
:100C500034BF00204FF000404FEAD13706FB07FCBD
:100C60004FEA1C4C0CFB0BF7D21B03FB0CF761EBA0
:100C700007010CFB0EF7B0EB074072EB17420CFBC1
:100C800008F734BFA2EB0742B2EB074261EB174112
:100C90004FEA0C444FEA910706FB07FC4FEA1C4C55
:100CA0000CFB0BF7B0EBC74072EB573203FB0CF7B2
:100CB00034BFA2EBC742B2EBC74261EB57310CFB2A
:100CC0000EF7B0EBC70072EB57720CFB08F734BF9E
:100CD000A2EBC702B2EBC70261EB5771039F4FEA69
:100CE000816141EA921104EBCC044FEAD1374FEA1B
:100CF000826206FB07FC42EA90124FEA80604FEAEC
:100D00001C4C0CFB0BF7D21B03FB0CF761EB070130
:100D10000CFB0EF7B0EB074072EB17420CFB08F729
:100D200034BFA2EB0742B2EB074261EB17414FEA37
:100D30008C554FEA910704EB9C2406FB07FC4FEA15
:100D40001C4C0CFB0BF7B0EBC74072EB573203FBAC
:100D50000CF734BFA2EBC742B2EBC74261EB57318D
:100D60000CFB0EF7B0EBC70072EB57720CFB08F7E9
:100D700034BFA2EBC702B2EBC70261EB577115EBB0
:100D80004C254FEA816141EA92114FEA82624FEAB3
:100D9000D13742EA901206FB07FC44F100044FEA07
:100DA00080604FEA1C4C0CFB0BF7D21B03FB0CF7CB
:100DB00061EB07010CFB0EF7B0EB074072EB17423B
:100DC0000CFB08F734BFA2EB0742B2EB074261EB22
:100DD000174115EB1C154FEA813141EA92414FEA68
:100DE000823242EA90424FEA80304FEA0C7644F178
:100DF000000448EA03434EEA0B484FF0000EB2EB02
:100E0000080C71EB030724BF624639464EEB0E0E09
:100E10004FF0000B0018524149414BEB0B0BB2EB6A
:100E2000080C71EB03077BF1000B24BF62463946C7
:100E30004EEB0E0E4FF0000B0018524149414BEBA8
:100E40000B0BB2EB080C71EB03077BF1000B24BF1B
:100E5000624639464EEB0E0E51EA020718BF46F0C5
:100E6000010616EB0E7655F1000254F1000103D590
:100E7000BDE88901BDE80088BDE88901BDE80048FA
:100E8000B619524141EB0101A3F101037047808083
:100E90007F7E7D7C7B7A79787776767574737271D4
:100EA00071706F6E6E6D6C6C6B6A6A69686867668C
:100EB00066656464636362616160605F5F5E5E5D1E
:100EC0005D5C5C5B5B5A5A59595858575756565592
:100ED00055555454535352525251515050504F4FF4
:100EE0004F4E4E4D4D4D4C4C4C4B4B4B4A4A4A4944
:100EF0004949484848474747474646464545454487
:100F00004444444343434342424242414141002B13
:100F10009C4630D477002BD01CB54FEA370703B47A
:100F20004FF010004FF01001BAF1000F06D0BCF1E5
:100F3000000FDCBF40F0080040F008014FF0000057
:100F40000FBCBDE810400BF1010BBBF1010F08BF56
:100F50005FEA170722BF12F1010211F101014FF000
:100F6000004143F1000300F0004043EA00007047F5
:100F7000F9D35708D0E746EA064613F1400F4FEA87
:100F800016461FDD13F1200FDFBF16430A4600216E
:100F900020335B42BED0C3F1200746EA064602FA80
:100FA00007F74FEA164646EA0706C3F1200722FA7A
:100FB00003F201FA07F721FA03F14FF0000342EAC6
:100FC0000702A7E746EA020646EA06464FEA164641
:100FD00046EA0106BCBF46EA0646360C4FF000035F
:100FE0004FF000024FF0000194E72DE9804C9A4643
:100FF000934670B491E8380007C831EA400C48BF06
:1010000034EA430C03D5FFF7E6FDFFF780FFF0BCA1
:10101000BDE8008C2DE9804C9A46934670B491E867
:10102000380007C810F0804F08BF13F0804F03D17D
:1010300000F005F8FFF76BFFF0BCBDE8008C20F076
:101040007F4780EA030023F07F4C07EB0C03A3F5F6
:101050007C5300F00040A3F1FE0392F0000F00F07B
:10106000B38095F0000F00F077802DE901494FEA39
:1010700011404FEA144621EA004800FB06FC24EA2E
:10108000064708FB06F607FB08F800FB07F718EB16
:1010900006484CEB164C4FEA124B18EB07484FEA48
:1010A00015464CEB174022EA0B4E0BFB06FC25EADB
:1010B00006470EFB06F607FB0EFE0BFB07F71EEBC3
:1010C000064E4CEB164C4FF000061EEB074E4CEB59
:1010D000174B18EB0B0840F1000018EB0E0B58EB08
:1010E000000840F100008F1A4FF000013CBFC943D7
:1010F000661B14BFB5EB040C00213CBFC943F61BB3
:101100004FEA17444EEA8E0E27EA04454FEA1C4781
:1011100004FB07622CEA074C05FB07F70CFB05F6FE
:1011200004FB0CFC16EB074642EB174216EB0C4691
:1011300042EB1C421BEB060658EB0202414146EA19
:101140009E0601D5BDE80189B619524141EB010166
:10115000A3F10103BDE801894FEA14454FEA1147A5
:1011600024EA054621EA074C05FB07F406FB07F7CE
:101170000CFB06F105FB0CFC11EB074144EB17449B
:101180004FEA124711EB0C4144EB1C4422EA074C96
:1011900005FB07F206FB07F70CFB06F605FB0CFC4C
:1011A00016EB074642EB174216EB0C4642EB1C458A
:1011B0006A1854F1000148BF7047B619524141EB1B
:1011C0000101A3F10103704795F0000F37D04FEAFA
:1011D00011424FEA144721EA024624EA074C02FB77
:1011E00007F106FB07F70CFB06F402FB0CFC14EB03
:1011F000074441EB17414FEA154714EB0C4441EB10
:101200001C4125EA074C02FB07F506FB07F70CFB20
:1012100006F602FB0CFC16EB074645EB174516EBF2
:101220000C4645EB1C42121951F1000148BF7047B2
:10123000B619524141EB0101A3F1010370474FEA96
:1012400014454FEA114724EA054621EA074C05FBFD
:1012500007F106FB07F70CFB06F24FF0000605FB53
:101260000CFC12EB074241EB174112EB0C4251EB25
:101270001C4148BF7047921841EB0101A3F10103E3
:10128000704700BFFEE7704772B600BFFEE7014639
:10129000002291F82100022808D00420886300BFB2
:1012A000002081F8200000BF012070470868006816
:1012B00020F00E000B6818600868006820F001003C
:1012C0000B68186091F8403001209840CB6B586053
:1012D000012081F8210000BF002081F8200000BF1C
:1012E0001046E2E770B50446002594F82100022874
:1012F00003D00420A0630125C1E02068006820F02D
:101300000E00216808602068006820F00100216854
:1013100008605C492068884252D95A497839206867
:10132000884201D1012047E056496439206888424B
:1013300001D1102040E0534950392068884201D142
:10134000801539E04F493C392068884201D180142A
:1013500032E04C4928392068884202D14FF480306D
:101360002AE0484914392068884202D14FF480109D
:1013700022E044492068884201D140041CE04249EF
:101380002068884201D1012016E03F4914312068CD
:10139000884201D110200FE03B4928312068884263
:1013A00001D1801508E038493C312068884201D1DC
:1013B000801401E04FF480303349091F086051E088
:1013C000304978392068884201D1012047E02D4911
:1013D00064392068884201D1102040E02949503901
:1013E0002068884201D1801539E026493C392068BF
:1013F000884201D1801432E022492839206888428D
:1014000002D14FF480302AE01E4914392068884206
:1014100002D14FF4801022E01A492068884201D19D
:1014200040041CE018492068884201D1012016E0E0
:10143000154914312068884201D110200FE012496B
:1014400028312068884201D1801508E00E493C31DE
:101450002068884201D1801401E04FF480300949AE
:1014600080394860012084F8210000BF002084F802
:10147000200000BF606B10B12046616B8847284692
:1014800070BD0000800002400804024070B50446B0
:1014900000F0B6F906462546681C10B104480078ED
:1014A000054400BF00F0ACF9801BA842FAD370BD20
:1014B000080000202DE9F847024600239C467BE106
:1014C0004FF0010808FA03F4D1F8008008EA04009C
:1014D000A0427DD1DFF8F4A2D1F80480A8EB0A097C
:1014E000D0453AD014DCB8F1030F50D009DCB8F184
:1014F000000F31D0B8F1010F1CD0B8F1020F49D163
:1015000020E0B8F1110F18D0B8F1120F42D11EE04F
:10151000B9F5881F25D006DCB9F5803F20D0B9F594
:10152000801F37D11AE0B9F5001F18D0B9F5041F94
:1015300030D117E0D1F80CC02DE0D1F80C8008F1C3
:10154000040C28E0D1F80C8008F1080C23E0D1F855
:101550000C8008F10C0C1EE000BF00BF00BF00BFF4
:1015600000BF00BFD1F80880B8F1000F02D14FF0E2
:10157000040C0BE0D1F80880B8F1010F03D14FF053
:10158000080C146102E04FF0080C546103E04FF0C6
:10159000000C00E000BF00BFFF2801D8904601E02A
:1015A00002F104084646FF2802D84FEA830803E008
:1015B000A3F108084FEA88084746D6F800804FF0A4
:1015C0000F0909FA07F928EA09080CFA07F900E0F7
:1015D0007AE048EA0908C6F80080D1F8048008F0EB
:1015E0008058B8F1805F6FD100BFDFF8E481D8F890
:1015F000188048F00108DFF8D891C9F81880C8466B
:10160000D8F8188008F00108CDF8008000BF00BFAE
:101610004FEAB9384FEA930958F829504FEA8378CE
:101620004FEA18794FF00F0808FA09F825EA08057B
:10163000DFF8A081424502D14FF0000824E0DFF836
:101640009881424502D14FF001081DE0DFF88C81FE
:10165000424502D14FF0020816E0DFF8848142458E
:1016600002D14FF003080FE0DFF87881424502D144
:101670004FF0040808E0DFF87081424502D14FF0D6
:10168000050801E04FF006084FEA83794FEA19791F
:1016900008FA09F848EA0505DFF850814FEA93098E
:1016A00048F82950D1F8048008F48018B8F5801F54
:1016B0000BD1DFF83C81D8F8008048EA0008DFF859
:1016C0003091C9F800800AE075E0DFF82481D8F88D
:1016D000008028EA0008DFF81891C9F80080D1F8E6
:1016E000048008F40018B8F5001F0ED1DFF800815F
:1016F00008F10408D8F8008048EA0008DFF8F09004
:1017000009F10409C9F800800DE0DFF8E48008F170
:101710000408D8F8008028EA0008DFF8D49009F11E
:101720000409C9F80080D1F8048008F40038B8F53D
:10173000003F0ED1DFF8B880A8F10408D8F8008087
:1017400048EA0008DFF8A890A9F10409C9F8008068
:101750000DE0DFF89C80A8F10408D8F8008028EAA2
:101760000008DFF88C90A9F10409C9F80080D1F8CD
:10177000048008F48038B8F5803F0ED1DFF870801F
:10178000A8F10808D8F8008048EA0008DFF860905F
:10179000A9F10809C9F800800DE0DFF85480A8F12C
:1017A0000808D8F8008028EA0008DFF84490A9F17A
:1017B0000809C9F800805B1CD1F8008028FA03F8FA
:1017C000B8F1000F7FF47CAEBDE8F887000011107F
:1017D0000010024000080140000C014000100140D0
:1017E0000014014000180140001C014008000140A5
:1017F000080401400AB1016101E00B040361704774
:10180000014800687047000000000020034800689D
:101810000349097808440149086070470000002026
:101820000800002010B50848006840F01000064984
:101830000860032000F0A8F80F2000F007F800F07F
:101840002BF8002010BD00000020024070B50446B7
:101850000E4800784FF47A71B1FBF0F00C4909683A
:10186000B1FBF0F5284600F0F9FB08B1012070BD8E
:10187000102C07D200222146501E00F047F80548E0
:10188000046001E00120F2E70020F0E708000020FA
:101890000C0000200400002008B500BF114880693A
:1018A00040F001000F4988610846806900F001009E
:1018B000009000BF00BF00BF0846C06940F08050E4
:1018C000C8610846C06900F08050009000BF00BFAA
:1018D00000BF0549486820F0E06040F000704860B3
:1018E00000BF08BD0010024000000140014608464C
:1018F000002809DB00F01F0301229A4043099B00E6
:1019000003F1E023C3F8002100BF70472DE9F05F29
:1019100080460D461646002701F0A2FF07463946CD
:101920002A46334601F00700C0F1070ABAF1040F56
:1019300002D94FF0040A01E0C0F1070AD14600F1D4
:10194000040ABAF1070F02D24FF0000A01E0A0F139
:10195000030AD4464FF0010A0AFA09FAAAF1010A69
:101960000AEA020A0AFA0CFA4FF0010B0BFA0CFB16
:10197000ABF1010B0BEA030B4AEA0B04214640468C
:1019800001F076FFBDE8F09F00BF00F00702064BB4
:1019900019684FF6FF031940044B0B4343EA022139
:1019A000014B196000BF70470CED00E00000FA0524
:1019B00070B504460D460CB9012070BD5A48006848
:1019C00000F00700A8420ED25748006820F0070038
:1019D0002843554908600846006800F00700A842FF
:1019E00001D00120E9E7207800F0020002281DD193
:1019F000207800F00400042805D14C48406840F4E9
:101A0000E0604A494860207800F00800082805D1C5
:101A10004648406840F46050444948604348406844
:101A200020F0F000A168084340494860207800F0A9
:101A3000010078B36068012806D13C48006800F4D2
:101A4000003090B90120B8E76068022806D1374815
:101A5000006800F0007040B90120AEE7334800682C
:101A600000F0020008B90120A7E73048406820F0E4
:101A70000300616808432D494860FFF7C1FE064630
:101A800009E0FFF7BDFE801B41F28831884202D990
:101A9000032092E707E02548406800F00C006168E9
:101AA000B0EB810FEDD12048006800F00700A8429C
:101AB0000ED91D48006820F0070028431A49086025
:101AC0000846006800F00700A84201D0012074E732
:101AD000207800F00400042807D11448406820F45E
:101AE000E060E168084311494860207800F0080090
:101AF000082808D10D48406820F46050216940EA68
:101B0000C1000A49486000F03FF808494968C1F33C
:101B10000311074A515CC84006490860064800683E
:101B2000FFF794FE002048E700200240001002402A
:101B3000463D00080C000020040000200148006819
:101B4000704700000C00002000B5FFF7F7FF0449C4
:101B50004968C1F30221034A515CC84000BD00003E
:101B600000100240563D000800B5FFF7E7FF0449AA
:101B70004968C1F3C221034A515CC84000BD00005E
:101B800000100240563D000870B5002100220024DC
:101B900000230020134D696801F00C05F5B1042DF8
:101BA00002D0082D19D101E00F4819E00F4DC1F303
:101BB0008346AB5D01F4803555B10A4D6D68C5F3C0
:101BC00040450B4E725D084D5D43B5FBF2F402E0FB
:101BD000084D03FB05F4204602E000BF024800BFA9
:101BE00000BF70BD0010024000127A00343D0008B2
:101BF000443D000800093D00F8B504460CB9012039
:101C0000F8BD207800F00100002878D0F84840683E
:101C100000F00C0004280CD0F548406800F00C00DF
:101C2000082811D1F248406800F48030B0F5803FB8
:101C30000AD1EF48006800F4003000285FD06068E7
:101C400000285CD10120DBE700BF6068B0F5803F71
:101C500006D1E748006840F48030E549086028E094
:101C6000606858B9E248006820F48030E0490860B4
:101C70000846006820F4802008601AE06068B0F52B
:101C8000A02F0BD1DA48006840F48020D8490860C2
:101C90000846006840F4803008600AE0D4480068D4
:101CA00020F48030D24908600846006820F4802083
:101CB000086000BF606888B1FFF7A2FD054606E036
:101CC000FFF79EFD401B642801D9032098E7C84810
:101CD000006800F400300028F2D010E0FFF790FD1B
:101CE000054606E0FFF78CFD401B642801D9032060
:101CF00086E7BF48006800F400300028F2D1207861
:101D000000F00200022857D1B948406800F00C00EA
:101D100050B1B748406800F00C00082818D1B4480A
:101D2000406800F4803098B9B148006800F00200C3
:101D300020B12069012801D0012061E7AC4800688A
:101D400020F0F800616940EAC100A949086033E069
:101D50002069E8B10120A7490860FFF751FD054659
:101D600006E0FFF74DFD401B022801D9032047E79D
:101D70009F48006800F002000028F2D09C480068EC
:101D800020F0F800616940EAC1009949086013E059
:101D9000002098490860FFF733FD054606E0FFF78D
:101DA0002FFD401B022801D9032029E79048006835
:101DB00000F002000028F2D1207800F00800082886
:101DC0002DD1A069B8B101208B490860FFF718FD3B
:101DD000054606E0FFF714FD401B022801D9032049
:101DE0000EE78348406A00F002000028F2D001208C
:101DF00001F0B8F913E000207F490860FFF700FD0B
:101E0000054606E0FFF7FCFC401B022801D9032031
:101E1000F6E67748406A00F002000028F2D1207808
:101E200000F00400042873D100277148C06900F055
:101E3000805070B900BF6E48C06940F080506C4956
:101E4000C8610846C06900F08050009000BF00BF24
:101E500001276A48006800F48070B0B967480068DC
:101E600040F4807065490860FFF7CAFC054606E04B
:101E7000FFF7C6FC401B642801D90320C0E65F4879
:101E8000006800F480700028F2D000BFE0680128EC
:101E900006D15748006A40F001005549086227E022
:101EA000E06858B95248006A20F0010050490862C1
:101EB0000846006A20F00400086219E0E06805287E
:101EC0000BD14B48006A40F00400494908620846BB
:101ED000006A40F0010008620AE04548006A20F00C
:101EE0000100434908620846006A20F004000862C5
:101EF00000BFE068A0B1FFF783FC054609E0FFF7EB
:101F00007FFC401B41F28831884202D9032077E6EA
:101F100022E03748006A00F002000028EFD012E00B
:101F2000FFF76EFC054608E0FFF76AFC401B41F234
:101F30008831884201D9032062E62D48006A00F00A
:101F400002000028F0D1012F05D12948C06920F0F6
:101F500080502749C86100BFE069C8B32448406881
:101F600000F00C00082860D0E069022848D1002069
:101F700020490866FFF744FC054606E0FFF740FCF1
:101F8000401B022801D903203AE61948006800F0F6
:101F900000700028F2D1206AB0F5803F07D11448C4
:101FA000406820F40030A168084311494860D4E932
:101FB000080108430E49496821F4741108430C498B
:101FC000486001200B490866FFF71AFC054607E048
:101FD0003DE0FFF715FC401B022801D903200FE666
:101FE0000348006800F000700028F2D02FE00000E5
:101FF0000010024000004242800442420070004053
:10200000002014490866FFF7FBFB054606E0FFF7D2
:10201000F7FB401B022801D90320F1E50E480068B8
:1020200000F000700028F2D111E0E069012800D131
:10203000E6E50948466806F48031206A814204D109
:1020400006F47011606A814201D00120D8E50020B9
:10205000D6E50000000042420010024070B5044680
:102060002546681EB0F1807F01D301200FE0681E75
:102070004FF0E02148610F214FF0FF3001F0F8FBF5
:1020800000204FF0E021886107200861002070BD2A
:102090007047704730B502460B4600BF92F83C00CF
:1020A000012801D1022030BD012082F83C0000BF90
:1020B000022082F83D00106844681068816824F0AE
:1020C00070041868044310684460144D1068A842F6
:1020D00013D0134D1068A8420FD01068B0F1804F94
:1020E0000BD0104D1068A84207D00F4D1068A842C1
:1020F00003D00E4D1068A84205D121F08001586828
:10210000014310688160012082F83D0000BF00207B
:1021100082F83C0000BF00BFC5E70000002C014072
:10212000003401400004004000080040000C004062
:1021300010B504460CB9012010BD94F83D0028B933
:10214000002084F83C00204600F026F8022084F8A5
:102150003D00211D206801F05BF8012084F8460055
:1021600000BF84F83E0001213F2001554020015569
:102170004120015500BF00BF012084F842004320E8
:102180000155442001554520015500BF012084F828
:102190003D000020D0E7000038B504462068B0F1CB
:1021A000804F15D100BF0B48C06940F001000949BC
:1021B000C8610846C06900F00100009000BF00BF80
:1021C000002211461C20FFF7A1FB1C20FFF78EFB0D
:1021D00038BD0000001002402DE9F04104460D46D4
:1021E000002700BF94F83C00012802D10220BDE87E
:1021F000F081012084F83C0000BF022084F83D00FB
:102200002068866826F0770626F47F462068866078
:102210002868502833D00CDC202850D004DC00285B
:102220004BD0102851D149E0302849D040284CD11A
:1022300039E060282DD0702807D0B0F5805F03D03A
:10224000B0F5005F41D10DE041E0D5E902136A68C5
:10225000206801F033F82068866846F07706206829
:10226000866034E0D5E902136A68206801F026F838
:102270002068806840F480402168886027E0EA6830
:102280006968206801F00AF95021206801F021F8FE
:102290001DE0EA686968206801F013F96021206890
:1022A00001F017F813E0EA686968206801F0F6F8B1
:1022B0004021206801F00DF809E000BF00BF00BF19
:1022C0002968206801F005F801E0012700BF00BF80
:1022D000012084F83D0000BF002084F83C0000BFCE
:1022E000384684E7704770B504462068C5682068A2
:1022F000066906F00200022819D105F00200022842
:1023000015D1401F2168086101202077206880696D
:1023100000F0030018B12046FFF7E4FF05E0204677
:1023200000F0C2F8204600F076F90020207706F091
:102330000400042819D105F00400042815D1C04375
:1023400021680861022020772068806900F44070CD
:1023500018B12046FFF7C6FF05E0204600F0A4F8BC
:10236000204600F058F90020207706F008000828E1
:1023700019D105F00800082815D1C043216808616B
:10238000042020772068C06900F0030018B12046BF
:10239000FFF7A8FF05E0204600F086F8204600F091
:1023A0003AF90020207706F01000102819D105F026
:1023B0001000102815D1C04321680861082020773B
:1023C0002068C06900F4407018B12046FFF78AFF0A
:1023D00005E0204600F068F8204600F01CF90020D7
:1023E000207706F0010048B105F0010030B16FF030
:1023F000010021680861204600F00EF906F0800017
:10240000802809D105F08000802805D1C0432168CB
:1024100008612046FFF73CFE06F04000402809D145
:1024200005F04000402805D1C043216808612046DE
:1024300000F0F3F806F02000202809D105F0200074
:10244000202805D1C043216808612046FFF721FEFE
:1024500070BD000010B586B00446002002900390C5
:10246000049005902068B0F1804F16D100BF0C4851
:10247000806940F004000A4988610846806900F0DC
:102480000400019000BF00BF0120029002200390D1
:10249000059002A90348FFF70DF806B010BD000033
:1024A000001002400008014070472DE9F041044649
:1024B0000D461646002700BF94F83C00012802D1C3
:1024C0000220BDE8F081012084F83C0000BF36B155
:1024D000042E1BD0082E31D00C2E5ED145E02946AB
:1024E000206800F0FFFE2068806940F00800216845
:1024F00088612068806920F0040021688861206874
:102500008069296908432168886148E02946206874
:1025100000F020FF2068806940F400602168886135
:102520002068806920F48060216888612068806963
:10253000296940EA01202168886130E02946206845
:1025400000F046FF2068C06940F008002168C861BB
:102550002068C06920F004002168C8612068C06953
:10256000296908432168C86119E02946206800F0FC
:102570006BFF2068C06940F400602168C861206872
:10258000C06920F480602168C8612068C069296939
:1025900040EA01202168C86101E0012700BF00BFB7
:1025A00000BF002084F83C0000BF384689E710B522
:1025B00004460CB9012010BD94F83D0028B9002054
:1025C00084F83C00204600F025F8022084F83D0005
:1025D000211D206800F01CFE012084F8460000BF89
:1025E00084F83E0001213F20015540200155412043
:1025F000015500BF00BF012084F84200432001556F
:10260000442001554520015500BF012084F83D00BC
:102610000020D0E770477047704770477047704799
:102620002DE9F84F0446206805682068C6682068D0
:1026300047694FF00009CA4605F00F09B9F1000FCC
:102640000AD105F0200038B106F0200020B1204664
:1026500000F09BFFBDE8F88FB9F1000F7BD007F0C9
:10266000010018B906F49070002874D005F001003C
:1026700030B106F4807018B1606C40F00100606405
:1026800005F0040030B107F0010018B1606C40F0B3
:102690000200606405F0020030B107F0010018B1DB
:1026A000606C40F00400606405F0080048B106F07A
:1026B000200010B907F0010018B1606C40F008006C
:1026C0006064606C002845D005F0200028B106F059
:1026D000200010B1204600F058FF20684069C0F388
:1026E000801A606C00F0080010B9BAF1000F2CD00D
:1026F000204600F004FF2068406900F0400000B36D
:1027000000BF00BF2168143151E8001F21F04000D4
:102710002168143141E80002002AF3D100BFE06BC8
:1027200050B17748E16B4863E06BFEF7DBFD88B1A1
:10273000E06B416B88470DE02046FFF770FF09E032
:1027400009E02046FFF76BFF04E02046FFF767FF34
:10275000002060647EE7206B012877D105F010002F
:10276000002873D006F010000028FAD000BF002027
:10277000009020680068009020684068009000BFCA
:1027800000BF2068406900F0400000285FD0E06B87
:10279000006840681FFA80F8B8F1000F55D0A08D8E
:1027A000404552DDA4F82E80E06B8069202843D09C
:1027B00000BF00BF21680C3151E8001F21F4807078
:1027C00021680C3141E80002002AF3D100BF00BFAC
:1027D00000BF2168143151E8001F21F00100216879
:1027E000143141E80002002AF3D100BF00BF00BF4E
:1027F0002168143151E8001F21F040002168143194
:1028000041E80002002AF3D100BF202084F84200F2
:102810000020206300BF00BF21680C3151E8001F79
:1028200021F0100021680C3141E80002002AF3D1A8
:1028300000BFE06BFEF72BFD02206063A08DE28DF0
:10284000801A81B22046FFF7E9FE03E742E0A08D3F
:10285000E18D401A1FFA80F8E08DD0B3B8F1000F77
:1028600037D000BF00BF21680C3151E8001F21F4B0
:10287000907021680C3141E80002002AF3D100BFBA
:1028800000BF00BF2168143151E8001F21F0010092
:102890002168143141E80002002AF3D100BF202052
:1028A00084F842000020206300BF00BF21680C3183
:1028B00051E8001F21F0100021680C3141E80002AE
:1028C000002AF3D100BF0220606341462046FFF793
:1028D000A5FEBFE605F0800030B106F0800018B11B
:1028E000204600F06FFFB5E605F0400030B106F07D
:1028F000400018B1204600F038FEABE600BFA9E664
:10290000EB34000810B504460CB9012010BDA069D5
:1029100000B100E000BF94F8410028B9002084F81D
:102920004000204600F02AF8242084F84100206866
:10293000C06820F400502168C860204600F0A4FE62
:102940002068006920F4904021680861206840698F
:1029500020F02A00216848612068C06840F40050D7
:102960002168C86000206064202084F8410084F859
:1029700042000020606300BFC8E7000010B586B0C9
:102980000446002002900390049005901E492068A0
:10299000884236D100BF1D48806940F480401B4901
:1029A00088610846806900F48040019000BF00BF44
:1029B00000BF0846806940F00400886108468069CD
:1029C00000F00400019000BF00BF481502900220F3
:1029D00003900320059002A90D48FEF76BFD4FF40C
:1029E0008060029000200390049002A90848FEF73E
:1029F00061FD002211462520FEF788FF2520FEF705
:102A000075FF06B010BD0000003801400010024004
:102A10000008014070B504460D46164694F8420081
:102A200020280BD105B10EB9012070BD0020206314
:102A300032462946204600F0A5FEF6E70220F4E7DC
:102A400010B5044614492068884222D11348007802
:102A500048B913480078552805D00122104911487B
:102A6000FFF7D8FF10BD0D480078401C0B490870D7
:102A7000084600780B2804DB00F030F800200749F6
:102A800008700748054A1278811801220548FFF7A7
:102A9000C1FF00BFE6E70000003801401000002041
:102AA000CC0000205C000020704700BFFEE7000063
:102AB00010B528210548FDF750FC00200449087096
:102AC000012204490448FFF7A5FF10BDA40000201F
:102AD00010000020CC0000205C00002070B5002415
:102AE000002005E07049095C2144CCB2411CC8B209
:102AF0000A28F7DB6C48807AA04200D070BD6A4893
:102B00004078512804D0522851D053284ED18BE020
:102B100065498978644AD27841EA022108B201F015
:102B200023F806464FF08E4100F05CFF05464FF05B
:102B3000834101F031F85D4908605B4909795A4ADF
:102B4000527941EA022108B201F00EF806464FF030
:102B50008E4100F047FF05464FF0834101F01CF81D
:102B600052494860504989794F4AD27941EA022155
:102B700008B200F0F9FF06464FF08E4100F032FF38
:102B800005464FF0834101F007F8484988604649FF
:102B9000097A454A527A41EA022108B200F0E4FF7C
:102BA0000546434900F01EFF4049486279E03E492E
:102BB00089783D4AD27841EA022108B200F0D4FF78
:102BC00006464FF08E4100F00DFF0546394900F0F2
:102BD000E3FF3649C86034490979334A527941EAFA
:102BE000022108B200F0C0FF06464FF08E4100F00F
:102BF000F9FE05462F4900F0CFFF2C4908612A490C
:102C00008979294AD27941EA022108B200F0ACFF61
:102C100006464FF08E4100F0E5FE0546254900F0DE
:102C2000BBFF224948613CE01F4989781E4AD2789F
:102C300041EA022108B200F097FF06464FF08E41AC
:102C400000F0D0FE05461C4900F0A6FF1749886138
:102C500015490979144A527941EA022108B200F073
:102C600083FF06464FF08E4100F0BCFE0546124938
:102C700000F092FF0D49C8610B4989790A4AD2795F
:102C800041EA022108B200F06FFF06464FF08E4184
:102C900000F0A8FE0546084900F07EFF03490862DF
:102CA00000BF00BF00BF29E7CC000020A400002027
:102CB0000000C8420000FA440000344300B585B06B
:102CC0000020019002900390049000BF1C4880698E
:102CD00040F010001A4988610846806900F0100031
:102CE000009000BF00BF00BF0846806940F00400AC
:102CF00088610846806900F00400009000BF00BFB2
:102D000000BF0846806940F020008861084680695D
:102D100000F02000009000BF00BF00221E210948E3
:102D2000FEF768FD1E200190012002900020039014
:102D30000220049001A90348FEF7BCFB05B000BDCA
:102D4000001002400014014000B58DB00020099031
:102D50000A900B900C90079008901C216846FDF794
:102D6000FCFA4FF080402049086040F29F504860D4
:102D700000211D4881606321C1604FF40071016131
:102D800080218161FFF7D4F908B1FEF77DFA4FF495
:102D90008050099009A91448FFF71EFA08B1FEF700
:102DA00073FA1148FFF703FC08B1FEF76DFA002033
:102DB0000790089007A90C48FFF76CF908B1FEF7D7
:102DC00063FA60200090002001900290049000229D
:102DD00069460548FFF769FB08B1FEF755FA024856
:102DE000FFF738FB0DB000BD1400002010B50B48F4
:102DF0000B4908604FF41650486000210848816074
:102E0000C16001610C21416100218161C161FFF755
:102E100079FD08B1FEF738FA10BD00000038014016
:102E20005C00002000BFFEE700BFFEE770B5002495
:102E300019E004F1B001C8B2002100F059F90021F5
:102E4000022000F055F90021102000F051F9002572
:102E500005E00121002000F04BF9681CC5B2802D6F
:102E6000F7DB601CC4B2082CE3DB70BD00B585B095
:102E700000BF6748806940F00800654988610846DE
:102E8000806900F00800009000BF00BF042001909E
:102E90000120029003900320049001A95D48FEF7F1
:102EA00009FB082001900120029003900320049068
:102EB00001A95848FEF7FEFA102001900120029067
:102EC00003900320049001A95248FEF7F3FA01226F
:102ED00004215048FEF78EFC012208214D48FEF7E0
:102EE00089FC012210214B48FEF784FC01220221BB
:102EF0004848FEF77FFC6420FEF7C8FA0022022152
:102F00004448FEF777FC6420FEF7C0FA0122022154
:102F10004048FEF76FFC0021AE2000F0E9F80021E8
:102F2000022000F0E5F80021102000F0E1F8002177
:102F3000402000F0DDF80021812000F0D9F80021C8
:102F4000CF2000F0D5F80021A12000F0D1F8002119
:102F5000C82000F0CDF80021A62000F0C9F800211B
:102F6000A82000F0C5F800213F2000F0C1F80021A2
:102F7000D32000F0BDF80021084600F0B9F8002188
:102F8000D52000F0B5F80021802000F0B1F8002134
:102F9000D92000F0ADF80021F12000F0A9F80021BF
:102FA000DA2000F0A5F80021122000F0A1F800219D
:102FB000DB2000F09DF80021402000F099F800216E
:102FC000202000F095F80021022000F091F8002167
:102FD0008D2000F08DF80021142000F089F80021E8
:102FE000A42000F085F80021A62000F081F800213F
:102FF000AF2000F07DF80021AF2000F079F8FFF756
:1030000015FF0021084600F007F805B000BD0000DC
:10301000001002400014014070B504460D4605F151
:10302000B001C8B2002100F063F8102141EA141089
:10303000002100F05DF804F00F0141F001000021D3
:1030400000F056F870BD00002DE9F04107460E462D
:10305000904600250024A8F12000C5B27F2F02DD94
:103060000027B01CC6B231463846FFF7D5FF002412
:1030700008E004EB05110F4A505C012100F038F81C
:10308000601CC4B2082CF4DB701CC1B23846FFF7D8
:10309000C3FF002409E004EB05110831054A505C28
:1030A000012100F025F8601CC4B2082CF3DBBDE858
:1030B000F0810000864700082DE9F04104460F46E4
:1030C000154600260EE0AA5D39462046FFF7BCFFF4
:1030D00004F10800C4B2782C02DD0024B81CC7B289
:1030E000701CC6B2A85D0028EDD1BDE8F0810000DB
:1030F00070B504460E462EB1012204211748FEF792
:1031000079FB04E0002204211448FEF773FB00253C
:103110001BE0002208211148FEF76CFB04F0800040
:1031200028B1012210210D48FEF764FB04E00022C3
:1031300010210A48FEF75EFB012208210748FEF72E
:1031400059FB6006040E681CC5B2082DE1DB0122A4
:1031500004210248FEF74EFB70BD00000014014040
:103160007047000008B508490968C9084FF47A7229
:10317000B1FBF2F14143009100BF00BF00994A1E2C
:1031800000920029F9D108BD0C000020704710B54D
:10319000FEF73CFB10BD00B58FB0282105A8FDF758
:1031A000DCF814216846FDF7D8F8012005900004EA
:1031B0000690002007900120099002200C90C10386
:1031C0000D914FF4E0110E9105A8FEF715FD08B121
:1031D000FEF75AF80F200090022001900020029084
:1031E0004FF4806003900020049002216846FEF7AF
:1031F000DFFB08B1FEF748F80FB000BD70470000D4
:1032000010B50248FFF76FF810BD00001400002051
:1032100010B50268244B98420ED0244B98420BD034
:10322000B0F1804F08D0224B984205D0214B9842F4
:1032300002D0214B984203D122F070024B681A430E
:10324000194B98420ED0194B98420BD0B0F1804FD9
:1032500008D0174B984205D0164B984202D0164B17
:10326000984203D122F44072CB681A4322F08003C3
:103270004C6943EA040202608B68C3620B68836294
:10328000094B984202D0094B984201D10B69036364
:1032900001234361036903F001031BB1036923F0B8
:1032A0000103036110BD0000002C01400034014007
:1032B0000004004000080040000C004030B50C46FF
:1032C000816821F47F4142EA032525432943816037
:1032D00030BD0A46816821F0700142F007031943AE
:1032E0008160704730B5026A056A25F00105056204
:1032F0004368846924F0700424F003040D682C43AF
:1033000022F002028D682A43104DA84200D103E04A
:103310000F4DA84206D100BF22F00802CD682A4313
:1033200022F00402094DA84202D0094DA84207D15B
:1033300023F4807323F400734D692B438D692B4371
:10334000436084614D684563026230BD002C0140DA
:103350000034014030B5026A056A25F010050562A7
:103360004368846924F4E04424F440740D6844EA1A
:10337000052422F020028D6842EA0512124DA8426F
:1033800000D103E0114DA84207D100BF22F0800216
:10339000CD6842EA051222F040020B4DA84202D04D
:1033A0000A4DA84209D123F4806323F400634D69D8
:1033B00043EA85038D6943EA8503436084614D6870
:1033C0008563026230BD0000002C014000340140E2
:1033D00030B5026A056A25F4807505624368C469E0
:1033E00024F0700424F003040D682C4322F40072CE
:1033F0008D6842EA0522124DA84200D103E0114D2A
:10340000A84207D100BF22F40062CD6842EA05223B
:1034100022F480620A4DA84202D00A4DA84209D186
:1034200023F4805323F400534D6943EA05138D6957
:1034300043EA05134360C4614D68C563026230BD51
:10344000002C01400034014030B5036A056A25F4C0
:10345000805505624468C26922F4E04222F4407259
:103460000D6842EA052223F400538D6843EA0533D0
:10347000084DA84202D0084DA84204D124F480444B
:103480004D6944EA85144460C2614D680564036275
:1034900030BD0000002C01400034014030B50B4627
:1034A0001446026A056A25F001050562816921F06A
:1034B000F00141EA041122F00A021A43816102621A
:1034C00030BD30B50B461446026A056A25F010057A
:1034D0000562816921F4704141EA043122F0A002C1
:1034E00042EA03128161026230BD70B505466C6A22
:1034F0000020E085E0842046FFF791F870BD00BF12
:1035000000BF02680C3252E8002F22F4907102686A
:103510000C3242E80013002BF3D100BF00BF00BF04
:103520000268143252E8002F22F0010102681432BE
:1035300042E80013002BF3D100BF016B01290ED12B
:1035400000BF00BF02680C3252E8002F22F01001C9
:1035500002680C3242E80013002BF3D100BF202197
:1035600080F8421000210163704710B504462068BE
:10357000C06820F040002168C860202084F8410025
:103580002046FFF791FA002010BDF8B5044694F8E4
:103590004200222875D1A068B0F5805F0CD1206967
:1035A00050B90025A66A20684068C0F30800308042
:1035B000A06A801CA06215E0A56A0026A068B0F58C
:1035C000805F03D0A06828B9206918B920684068D6
:1035D000287004E02068406800F07F002870A06A2E
:1035E000401CA062E08D401E80B2E085002846D1DC
:1035F0002068C06820F020002168C8602068C0688A
:1036000020F480702168C8602068406920F00100C3
:1036100021684861202084F8420000206063206B0C
:10362000012826D10020206300BF00BF21680C3193
:1036300051E8001F21F0100021680C3141E8000220
:10364000002AF3D100BF2068006800F010001028A5
:103650000AD100BF00200090206800680090206818
:103660004068009000BF00BFA18D2046FEF7D6FF46
:1036700002E02046FFF7E4F90020F8BD01E0002059
:10368000FBE70220F9E7000070B5044621680969EC
:1036900021F44051E2681143226811612269A16856
:1036A0001143626941EA02052168C96841F20C626E
:1036B000914329432268D1602168496921F440710E
:1036C000A2691143226851612D4A2168914202D1B9
:1036D000FEF74AFA01E0FEF737FA00EBC00101EB12
:1036E000001162689200B1FBF2F100EBC00202EB44
:1036F000001263689B00B2FBF3F26423B2FBF3F2A7
:1037000002EBC20303EB0212A1EB8201322202EBB5
:1037100001116422B1FBF2F101F0F00100EBC002F3
:1037200002EB001263689B00B2FBF3F26423B2FB6E
:10373000F3F201EB021200EBC00101EB0011636830
:103740009B00B1FBF3F100EBC00303EB00136668D1
:10375000B600B3FBF6F36426B3FBF6F303EBC30644
:1037600006EB0313A1EB8301322303EB0111642366
:10377000B1FBF3F101F00F0111442268916070BDBB
:103780000038014010B5034699629A85DA85002019
:103790005864222083F84200186928B11868C0686C
:1037A00040F480701C68E0601868406940F00100D7
:1037B0001C6860611868C06840F020001C68E06008
:1037C000002010BD014691F84100212828D18868C9
:1037D000B0F5805F0BD1086948B90A6A1088C0F358
:1037E00008000B685860086A801C086205E00B6AD4
:1037F000581C086218780B685860C88C401E80B24C
:10380000C88458B90868C06820F080000B68D86088
:103810000868C06840F040000B68D860002070471E
:103820000220FCE710B50248FEF7FAFE10BD0000CA
:103830005C00002000BFFEE7490050EAC12018BF2D
:1038400004204A0D18BF40F0010040F2FF72B2EBB5
:10385000515F08BF40F00200012808BF05207047F3
:1038600002480068C0F30220704700000CED00E041
:1038700010B5002804DB0A07130E054A135406E0AE
:103880000A07140E034A00F00F031B1FD45410BD87
:1038900000E400E018ED00E030380A2801D20120F1
:1038A00070470020704700008EB0FDF7BBFFFFF7A8
:1038B00072FCFFF703FAFFF799FAFFF745FAFFF7F3
:1038C000D5FAFFF7F5F82FE01849886900F05EF89F
:1038D000044622460B4616A101A8FCF7A3FC01AA48
:1038E00001210020FFF7E8FB1049C86900F04EF8FD
:1038F000044622460B4611A101A8FCF793FC01AA3D
:1039000003210020FFF7D8FB0849086A00F03EF8C1
:10391000044622460B460CA101A8FCF783FC01AA31
:1039200005210020FFF7C8FBCEE70000A40000201F
:10393000526F6C6C3A252E32660000005069746339
:10394000683A252E326600005961773A252E326694
:103950000000000010B500290AD00878002807D020
:1039600005487844FDF77EF8002801D0002010BDFE
:103970000248784410BD00004A16000042160000BC
:103980000808A0F500114FEA3101704743004FEAE3
:10399000D30C4FEA3C0C43401FBF40070CF1605171
:1039A00013F0FE4F70471CF0006F03D100200CF0A5
:1039B000004170470CF0004343EA507010B540EAF4
:1039C000CC0000F06AF900BF000000924FEA00014D
:1039D000FFF7D6BF4FF000414FF00000A1F50021E6
:1039E000704700004FF47F0C1CEAD0121EBF1CEA87
:1039F000D11392EA0C0F93EA0C0F00F0858090EA45
:103A0000010F48BF42F4807240F4000C41F4000002
:103A10002CF07F4120F07F4000B58142A2EB0302F1
:103A20000FF2081CACEB504EC0F100009EF800E015
:103A30004FEA4E0E00FB0EFC38BF49004FEA2C1C2B
:103A400002F5FA020CFB0EF34FEACE1E4FEA112CE0
:103A50004FEAC1210EEB635E42EB22420EFB0CFCEF
:103A60004FEA1C5300FB03114FEA112C4FEA0131BE
:103A70000EFB0CFC4FEADC4C00FB0C11C14228BFD2
:103A800009184CEB03335DF804EB10EB410143EBF9
:103A9000C250B2F57C0F38BF704729D512F0F00F35
:103AA0001CBF00F1C04000F00040704700818283DD
:103AB0008485868788898B8C8D8E8F91929395963D
:103AC00097999A9C9D9FA0A2A3A5A7A8AAACAEB0C7
:103AD000B2B3B5B7B9BCBEC0C2C5C7C9CCCED1D4CC
:103AE000D7D9DCDFE2E6E9ECF0F3F7FAFE000000FC
:103AF0004FEA400C0CF1807CBCF17E4F28BF704730
:103B0000B0F1C04000F00FB990EA010F0CEAD113F8
:103B100048BF42F48072624538BF634507D213F450
:103B20007F0F16D080EA010000F00040704710B50A
:103B300000F0B3F8097EFC3E00F005B880EA010011
:103B400000F00040704780EA010000F0004000F003
:103B5000EAB812F47F0F04BF0248704780EA010000
:103B600000F0E1B80000C07F10F0004148BF4042C3
:103B7000B0FA80F310FA03F2C3F19D030BD051EABF
:103B8000C35101EB1220530638BF704700F101000A
:103B900008BF20F0010070474FF47F0C1CEAD012E0
:103BA0001EBF1CEAD11392EA0C0F93EA0C0F00F02F
:103BB000478090EA010F48BF42F480724FF0004CFA
:103BC0004CEA00204CEA012102EB0302A0FB0113A6
:103BD000A2F50002002918BF43F001035B0028BFD3
:103BE0004FEA330342EB22425FEA132C4CEBC25004
:103BF0002EBFBCEB436FB2F57C0F70474FEA036CEE
:103C0000BCF1004F08BF20F00100B2F57C0F38BFB7
:103C100070470BD582F0FF0212F5803FC8BF704796
:103C200000F1C040D8BF00F00040704700F5000C24
:103C30005FEA4C0C48BF7047B0F1C04000F073B869
:103C400090EA010F0CEAD11348BF42F4807262453A
:103C500038BF634504D280EA010000F0004070479D
:103C600010B500F01AF800BF8900013E00F007B857
:103C700000F009B85FEA410C5FEA1C6C08D080EAEA
:103C8000010000F050B85FEA400C5FEA1C6CF6D10E
:103C90004FF00040A0F5800070470EF1020E2EF0AC
:103CA000030E5EF8044B244204D44FEA4102B2F101
:103CB0007F4F11D84FEA4003B3F17F4F0CD80ED19C
:103CC0004FEAD07CB2F17F4F0CEB4C0C0CF1020CA4
:103CD00008BF4CEBD17C04E04FF0080C01E04FEA48
:103CE000D17C0CEB4C0324FA03F404F00704B4F188
:103CF000040C06D20EEB840CBDE810404CF0010C15
:103D00006047DFE80CF0070802024FF00040A0F522
:103D1000800010BD0846420018BFD2F1807288BFF3
:103D200000F0004010BDFF2141EAD050C0057047AF
:103D3000FCF716BC02030405060708090A0B0C0D64
:103D40000E0F101001020000000000000000010230
:103D50000304060708090000000001020304000034
:103D60000000000000000000000000000000000053
:103D7000000000000000000000000000000010B87B
:103D8000F8F8FF7F3FFCFCFCDCC7E7E7470000805A
:103D9000808000000000000000000000040E4EEED5
:103DA000EEFEFEFEEEEE0E0E04000000000000002F
:103DB0000000000000000000000000000000000003
:103DC00000000000000000000000000000000000F3
:103DD00000000000000000000000000000000000E3
:103DE00000000000000000000000000000000000D3
:103DF000000040E0E0E0E0E0E0E0E0F8FCFCFFFF95
:103E0000E7E3E1EEEFEFFFFFFFFFFDF97C3C1D1F55
:103E10001F1F00000000000000085CFCFCFCFFFF0E
:103E2000EFEFEFEFEEEEE7E7E7E7E7EFEFEEE0E0EB
:103E3000F0F0F0E0E0E00000000000000000000012
:103E40000000000000000000000000000000000072
:103E50000000000000000000000000000000000062
:103E60000000000000000000000000000000000052
:103E7000000000000000FFFFFF0000000030787825
:103E800078780000000000E3FFFF7F0000000000E2
:103E900000000000000000000000000000FFFFFF25
:103EA0000100000000383C3C1C000000000000FF46
:103EB000FFFF000101010000000000000000000001
:103EC00000000000000000000000000000000000F2
:103ED00000000000000000000000000000000000E2
:103EE00000000000000000000000000000000000D2
:103EF000000000000000070F0F0E1E1E1C1C1C1CE3
:103F00001C3838383C3E1F1F07030000000070FEBD
:103F1000FFFFC78000000000000000000003071F33
:103F20001F1E1C1C1C1C1C1C1C1CDCDCDC9C1C1F09
:103F30001F0F000000000000000000000000000053
:103F40000000000000000000000000000000000071
:103F50000000000000000000000000000000000061
:103F60000000000000000000000000000000000051
:103F70000000000000000000000000000000000041
:103F80000000000000000080C0E0C0C0C080000150
:103F90000103030300000000000000808080C0E0F7
:103FA000E0E0F0F070F8FCFE7F7F1F0F07010000DB
:103FB0000000000000000000000000000000000001
:103FC00000000000000000000000000000000000F1
:103FD00000000000000000000000000000000000E1
:103FE00000000000000000000000000000000000D1
:103FF00000000000000000000000000000000000C1
:1040000000000000000000031F3FFFF3F3E7C70FAD
:104010001F1E1C1C1C1E1E0E0F0F0787C7C3E3E3C9
:10402000F1F97C3E1F0F07030000000000000000B4
:104030000000000000000000000000000000000080
:104040000000000000000000000000000000000070
:104050000000000000000000000000000000000060
:104060000000000000000000000000000000000050
:104070000000000000000000000000000000000040
:1040800000000000000000000000010101031F1FEC
:104090001F1C1C1C1C1E1E0E0E0E07070703010111
:1040A0000000000000000000000000000000000010
:1040B0000000000000000000000000000000000000
:1040C00000000000000000000000000000000000F0
:1040D00000000000000000000000000000000000E0
:1040E00000000000000000000000000000000000D0
:1040F00000000000000000000000000000000000C0
:1041000000000000000000000000000000000000AF
:10411000000000000000000000000000000000009F
:10412000000000000000000000000000000000008F
:10413000000000000000000000000000000000007F
:10414000000000000000000000000000000000006F
:10415000000000000000000000000000000000005F
:10416000000000000000000000000000000000004F
:10417000000000000000000000000000000000003F
:10418000000000000000000000000000000000002F
:10419000000000000000000000000000000000001F
:1041A000000000000000000000000000000000000F
:1041B00000000000000000000000000000000000FF
:1041C00000000000000000000000000000000000EF
:1041D00000000000000000000000000000000000DF
:1041E000E0F0F0F8F8F8F8F8F8F8F8F8F8F8F8F877
:1041F000F8F8F8F8F8F8F8F8F8F8F8F8F8F8F8F83F
:10420000F8F8F8F8F8F0F0E0000000000000000016
:1042100080E0F0F0F0F0F0F0F0F0F0F0F0F0F0F01E
:10422000F0F0F0F0F0F0F0F0F0F0F0F0F0F0F0F08E
:10423000E0C000000000000000C0C0C0C0C0C0C09E
:10424000C0C0C0C0C0C0C0C0F8F8F8F8F8F8C0C01E
:10425000C0C0C0C0C0C0C0C0C0C0C0C0000000025C
:1042600007070707070707070707070707070707DE
:1042700007070707070707070707070707070707CE
:1042800007070707070787E7FB000000000000009B
:10429000FFFFFFFFFFFF0101F1F9F9FDFD7D7D7DCE
:1042A0007D797979F9F9F9F9F9F1E103FFFFFFFF78
:1042B000FFFFFE0000000000000F0F0F0F0F0F0F99
:1042C0000F0F0F0F0F0F1F7FFFFFFFFFFFFF0F0FDE
:1042D0000F0F0F0F0F0F0F0F0F0F0F0F000000FC2E
:1042E000FCFCFCFCFCFCFCFCFCFCFC7C1C0400005E
:1042F000000000C0F0FCFCFCFCFC7C1C0C0000007E
:104300000000C0F0FCFEFFFFFF0000000000000006
:10431000FFFFFFFFFFFF0070FDFDFEFEDECEDEDED5
:10432000FEFEFCFEFFFFFFDF8F030000FFFFFFFF2D
:10433000FFFFFF00000000000000FCFCFCFCFCFC98
:10434000FCFCFCFCFCFCFCFCFFFFFFFFFFFFFCFC9B
:10435000FCFCFCFCFCFCFCFCFCFCFC00000000FF8A
:10436000FFFFFFFFFFFFFF7F1F070100000000C0EE
:10437000F0FCFFFFFFFF7F1F070100000000C0F0FF
:10438000FCFFFFFFFFFFFFFFFF0000000000000039
:10439000FFFFFFFFFFFF00F0F1F9FBFB7BFBFBFBE7
:1043A000F3F3F1E1E3C3C3C3C3C3E600FFFFFFFFC1
:1043B000FFFFFF000000000000F8F8F8F8F8F80030
:1043C00000FCFCFCFCFCF8003CFCFCFCFCFCF800E9
:1043D0000080E0F0F8FCFCFCFCFCF8F0000000FFC2
:1043E000FFFFFF3F1F070100000080E0F8FCFFFF18
:1043F000FFFF7F1F07010000000040707C7F7F7F70
:104400007F7F7F7F7F7F7F7F3F0000000000000075
:10441000FFFFFFFFFFFF003C3E3E1E1E1E1E1E1E36
:104420003E3F7D7F7BFBFBFBFBFB7B00FFFFFFFF3A
:10443000FFFFFF000000000000FFFFFFFFFFFF0085
:1044400000FFFFFFFFFFFF8080879F9F9F9F9F9F31
:104450009F8F878380809F9F9F9F9F9F0000003F2B
:104460000F03000000000020383E3F3F3F3F3F0F5A
:104470000701000000000000000000000000000034
:10448000000000000000000000000000000000002C
:104490003F3F3F3F3F3F3F3F3F3F3F3F3F3F3F3F2C
:1044A0003F3F3F3F3F3F3F3F3F3F3F3F3F3F3F3F1C
:1044B0003F3F3F0000000000001F1F1F1F1F07009D
:1044C00000071F1F3F3F3F3F3F3F3F3F3F3F3F3FB3
:1044D0003F3F3F3F3F3F3F3F3F3F1F0F0000000038
:1044E00000000000000000000000000000000000CC
:1044F00000000000000000000000000000000000BC
:1045000000000000000000000000000000000000AB
:10451000000000000000000000000000000000009B
:10452000000000000000000000000000000000008B
:10453000000000000000000000000000000000007B
:10454000000000000000000000000000000000006B
:10455000000000000000000000000000000000005B
:10456000000000000000002F00000000070007000E
:1045700000147F147F1400242A7F2A12006264082A
:1045800013230036495522500000050300000000A7
:104590001C224100000041221C000014083E0814A7
:1045A0000008083E0808000000A060000008080895
:1045B0000808000060600000002010080402003EAF
:1045C0005149453E0000427F40000042615149464A
:1045D000002141454B31001814127F10002745453A
:1045E0004539003C4A49493000017109050300364C
:1045F0004949493600064949291E0000363600005F
:104600000000563600000008142241000014141463
:10461000141400004122140800020151090600325E
:104620004959513E007C1211127C007F494949369C
:10463000003E41414122007F4141221C007F494907
:104640004941007F09090901003E4149497A007F3B
:104650000808087F0000417F4100002040413F01E1
:10466000007F08142241007F40404040007F020C40
:10467000027F007F0408107F003E4141413E007FE1
:1046800009090906003E4151215E007F09192946AA
:104690000046494949310001017F0101003F404086
:1046A000403F001F2040201F003F4038403F006334
:1046B0001408146300070870080700615149454356
:1046C00000007F41410000552A552A550000414114
:1046D0007F0000040201020400404040404000000E
:1046E00001020400002054545478007F48444438A8
:1046F00000384444442000384444487F003854542F
:10470000541800087E0901020018A4A4A47C007FAC
:10471000080404780000447D4000004080847D004F
:10472000007F102844000000417F4000007C0418F6
:104730000478007C0804047800384444443800FCC1
:10474000242424180018242418FC007C08040408DD
:1047500000485454542000043F444020003C404052
:10476000207C001C2040201C003C4030403C004489
:1047700028102844001CA0A0A07C004464544C4491
:1047800014141414141400000000000000000000B1
:10479000000000000000000000F800000000000021
:1047A00000333000000000100C06100C0600000062
:1047B00000000000000040C07840C0784000043F86
:1047C00004043F040400007088FC08300000001856
:1047D00020FF211E0000F008F000E018000000217A
:1047E0001C031E211E0000F00888700000001E211E
:1047F00023241927211010160E00000000000000CD
:10480000000000000000000000E0180402000000AA
:1048100000071820400000020418E00000000040DB
:10482000201807000000404080F080404000020255
:10483000010F01020200000000F000000000010171
:10484000011F01010100000000000000000080B015
:1048500070000000000000000000000000000001E7
:104860000101010101010000000000000000003012
:1048700030000000000000000000806018040060AC
:1048800018060100000000E010080810E000000F0A
:10489000102020100F00001010F800000000002071
:1048A000203F2020000000700808088870000030B9
:1048B0002824222130000030088888483000001861
:1048C000202020110E000000C02010F8000000077A
:1048D0000424243F240000F80888880808000019F0
:1048E000212020110E0000E0108888180000000F21
:1048F000112020110E0000380808C83808000000F8
:10490000003F000000000070880808887000001C4C
:10491000222121221C0000E010080810E000000005
:10492000312222110F00000000C0C0000000000072
:104930000030300000000000008000000000000097
:10494000806000000000000080402010080000018E
:104950000204081020004040404040404000040451
:10496000040404040400000810204080000000201B
:10497000100804020100007048080808F000000058
:10498000003036010000C030C828E810E0000718E9
:10499000272423140B000000C038E0000000203C56
:1049A00023020227382008F8888888700000203FFA
:1049B000202020110E00C030080808083800071811
:1049C00020202010080008F808080810E000203F08
:1049D000202020100F0008F88888E8081000203FE9
:1049E00020202320180008F88888E8081000203FBD
:1049F000200003000000C030080808380000071835
:104A00002020221E020008F808000008F808203FB5
:104A1000210101213F20000808F8080800000020BB
:104A2000203F2020000000000808F8080800C0808F
:104A300080807F00000008F888C028180800203F08
:104A400020012638200008F8080000000000203F60
:104A500020202020300008F8F800F8F80800203F57
:104A6000003F003F200008F830C00008F808203F51
:104A7000200007183F00E01008080810E0000F10A1
:104A8000202020100F0008F808080808F000203F38
:104A9000210101010000E01008080810E0000F18D3
:104AA000242438504F0008F8888888887000203FF8
:104AB0002000030C302000708808080838000038F7
:104AC000202121221C00180808F8080818000000FE
:104AD000203F2000000008F808000008F808001F28
:104AE000202020201F000878880000C83808000017
:104AF00007380E010000F80800F80008F800033C31
:104B00000700073C030008186880806818082030F8
:104B10002C03032C30200838C800C83808000000D7
:104B2000203F2000000010080808C838080020387E
:104B3000262120201800000000FE020202000000D2
:104B4000007F40404000000C30C00000000000002A
:104B500000010638C00000020202FE000000004012
:104B600040407F0000000000040202020400000038
:104B70000000000000000000000000000000808035
:104B8000808080808080000202040000000000001D
:104B900000000000000000008080808000000019FC
:104BA000242222223F2008F8008080000000003FDD
:104BB000112020110E000000008080800000000EF7
:104BC000112020201100000000808088F800000ED5
:104BD000112020103F200000808080800000001FF6
:104BE000222222221300008080F08888881800206A
:104BF000203F202000000000808080808000006B2B
:104C000094949493600008F8008080800000203F16
:104C1000210000203F200080989800000000002024
:104C2000203F20200000000000809898000000C075
:104C30008080807F000008F8000080808000203F96
:104C400024022D302000000808F800000000002099
:104C5000203F202000008080808080808000203FD6
:104C600020003F20003F8080008080800000203FA7
:104C7000210000203F200000808080800000001F75
:104C8000202020201F00808000808000000080FF06
:104C9000A12020110E000000008080808000000E06
:104CA000112020A0FF808080800080808000202054
:104CB0003F212000010000008080808080000033C0
:104CC000242424241900008080E08080000000005B
:104CD000001F202000008080000000808000001F56
:104CE000202020103F2080808000008080800001F4
:104CF0000E300806010080800080008080800F3028
:104D00000C030C300F0000808000808080000020A9
:104D1000312E0E31200080808000008080808081D4
:104D20008E70180601000080808080808000002145
:104D3000302C2221300000000000807C02020000A4
:104D40000000003F404000000000FF0000000000A5
:104D50000000FF0000000002027C80000000004014
:104D6000403F0000000000060101020204040000B0
:104D70000000000000000000F010101010FF1010E4
:104D80001010F00000000000000000000000000013
:104D900000000000000000000F04040404FF0404ED
:104DA00004040F00000000000000000000000000EC
:104DB00000000000000000FE0212929292F2929215
:104DC000921202FE0000000000000000000000003F
:104DD00000000000000000FF40484848484F484A93
:104DE0004C4840FF000000000000000000000000F0
:104DF00000000000000020242424FE23222020FFA5
:104E000020222CA020000000000000000000000074
:104E1000000000000000000848847F024140201389
:104E20000C142241F8000000000000000000000007
:104E300000000000000080642C342424EC32222284
:104E4000322E23A2600000000000000000000000DD
:104E50000000000000000041219189874D55252563
:104E6000554D81808000000000000000000000001F
:104E7000000000000000008060F8074020180F08C4
:104E8000C80808281800000000000000000000000A
:104E9000000000000000010000FF00100C03408033
:104EA0007F00010618000000000000000000000064
:104EB00000000000000000FC0404FC00C2BA828272
:104EC00082FE8282800000000000000000000000DE
:104ED000000000000000000F04040F20100804422E
:104EE000817F0000000000000000000000000000C2
:104EF000000000000000000002400000000000A0D0
:104F00000000000005400000000000C80000000094
:104F10000C4000000000409C000000001940000010
:104F20000020BCBE0000000034400000BFC91B8E42
:104F300000000004B5400000504BCFD06607E2CF20
:104F4000010000006C4100003E8251AADFEEA73450
:104F500001000000D9420000DCB5A0E23A301F9702
:104F6000FFFFFFFFB4450000FD25A0C8E9A3C14F26
:104F7000FFFFFFFFFF3F0000000000800000000077
:104F8000FF3F00000000008000000000C84F000844
:104F900000000020140000006C010008DC4F000835
:104FA0001400002024070000880100081C000000F5
:104FB00043000000F8FFFFFF0C0000000E0000009F
:104FC0000F0000002E000000000000001000000094
:0C4FD0000100000000127A000000000048
:0400000508000131BD
:00000001FF
